:100000000C9461000C947E000C947E000C947E0095
:100010000C947E000C947E000C94CC000C947E001A
:100020000C947E000C947E000C947E000C947E0058
:100030000C947E000C947E000C947E000C947E0048
:100040000C9454020C947E000C947E000C947E0060
:100050000C947E000C947E000C947E000C947E0028
:100060000C947E000C947E0000000007000201004A
:100070000003040600000000000000000102040864
:100080001020408001020408102001020408102002
:10009000040404040404040402020202020203032E
:1000A00003030303000000002300260029000000D2
:1000B0000000250028002B0000000000240027007D
:1000C0002A0011241FBECFEFD8E0DEBFCDBF11E064
:1000D000A0E0B1E0E6E6F6E002C005900D92A8309F
:1000E000B107D9F721E0A8E0B1E001C01D92A2312B
:1000F000B207E1F70E9424030C9431030C94000032
:100100004115510529F4EAE7F0E080818F7780837B
:100110006A307105A9F063FD02C088E001C088E281
:100120006770682B88E10FB6F894A89580936000FB
:100130000FBE60936000E0E6F0E080818064808321
:10014000232BA1F483B7817F846083BFF89483B7A6
:10015000816083BF85B7806685BF8F7D85BF7894BA
:10016000889583B78E7F83BF78940EC083B7817FD5
:10017000846083BFF89483B7816083BF7894889547
:1001800083B78E7F83BF7894452B29F4EAE7F0E0AC
:1001900080818068808308951F920F920FB60F921E
:1001A00011248F930FB6F894A89580916000886110
:1001B00080936000109260000FBE8F910F900FBE71
:1001C0000F901F901895CF93DF9361E0809100010D
:1001D0000E94C00161E0809104010E94C00161E0C1
:1001E000809106010E94C00162E0809102010E949C
:1001F000C00161E08DE00E94C00160E080910401D7
:100200000E94FC0160E0809100010E94FC0161E01D
:10021000809106010E94FC0168EE73E080E090E0AE
:100220000E94C30260E0809106010E94FC01C3E0CD
:10023000D0E061E0809100010E94FC0160E971E082
:1002400080E090E00E94C30260E0809100010E9483
:10025000FC0164E670E080E090E00E94C302219718
:1002600041F7DF91CF910895CF93DF9361E08091C3
:1002700004010E94FC0164E670E080E090E00E94CE
:10028000C30260E0809104010E94FC01CAE0D0E05A
:1002900020E030E040E050E069E070E088E091E08C
:1002A0000E9480002197A1F7809102010E942B02F9
:1002B00020E030E040E050E068E070E088E091E06D
:1002C0000E948000809102010E942B02019781F31D
:1002D000C5E0D0E020E030E040E050E068E070E0D1
:1002E00088E091E00E9480002197A1F761E0809171
:1002F00006010E94FC0164E670E080E090E00E944C
:10030000C30260E0809106010E94FC01C1EED0E0D2
:1003100020E030E040E050E068E070E088E091E00C
:100320000E9480002197A1F7DF91CF91089583303B
:1003300081F028F4813099F08230A1F00895863060
:10034000A9F08730B9F08430D1F4809180008F7D9E
:1003500003C0809180008F7780938000089584B5DA
:100360008F7702C084B58F7D84BD08958091B000E1
:100370008F7703C08091B0008F7D8093B000089587
:10038000CF93DF9390E0FC01E458FF4F2491FC01F0
:10039000E057FF4F8491882361F190E0880F991F07
:1003A000FC01E854FF4FC591D491FC01E255FF4F89
:1003B000A591B491611109C09FB7F89488812095E7
:1003C00082238883EC912E230BC0623061F49FB7A7
:1003D000F8948881322F309583238883EC912E2BDB
:1003E0002C939FBF06C08FB7F894E8812E2B2883EB
:1003F0008FBFDF91CF9108951F93CF93DF93282F65
:1004000030E0F901E859FF4F8491F901E458FF4FBA
:10041000D491F901E057FF4FC491CC23C1F0162FBE
:1004200081110E949701EC2FF0E0EE0FFF1FE255C3
:10043000FF4FA591B4919FB7F894111104C08C910E
:10044000D095D82302C0EC91DE2BDC939FBFDF91C7
:10045000CF911F910895CF93DF93282F30E0F901BA
:10046000E859FF4F8491F901E458FF4FD491F90105
:10047000E057FF4FC491CC2391F081110E94970166
:10048000EC2FF0E0EE0FFF1FEC55FF4FA591B4915C
:10049000EC91ED2381E090E021F480E002C080E067
:1004A00090E0DF91CF9108951F920F920FB60F92B7
:1004B00011242F933F938F939F93AF93BF9380917A
:1004C0000A0190910B01A0910C01B0910D013091A6
:1004D000090123E0230F2D3720F40196A11DB11D42
:1004E00005C026E8230F0296A11DB11D2093090126
:1004F00080930A0190930B01A0930C01B0930D011E
:1005000080910E0190910F01A0911001B091110105
:100510000196A11DB11D80930E0190930F01A09330
:100520001001B0931101BF91AF919F918F913F91B5
:100530002F910F900FBE0F901F9018953FB7F89412
:1005400080910E0190910F01A0911001B0911101C5
:1005500026B5A89B05C02F3F19F00196A11DB11D1E
:100560003FBFBA2FA92F982F8827820F911DA11D59
:10057000B11DBC01CD0142E0660F771F881F991F96
:100580004A95D1F70895CF92DF92EF92FF92CF93E1
:10059000DF936B017C010E949E02EB01C114D10428
:1005A000E104F10479F00E949E026C1B7D0B683E11
:1005B0007340A0F381E0C81AD108E108F108C851DE
:1005C000DC4FECCFDF91CF91FF90EF90DF90CF9099
:1005D0000895789484B5826084BD84B5816084BDBB
:1005E00085B5826085BD85B5816085BDEEE6F0E0AC
:1005F000808181608083E1E8F0E010828081826008
:100600008083808181608083E0E8F0E08081816088
:100610008083E1EBF0E0808184608083E0EBF0E0B8
:10062000808181608083EAE7F0E08081846080835C
:100630008081826080838081816080838081806806
:1006400080831092C10008950E94E9020E94E30095
:10065000C0E0D0E00E9434012097E1F30E94000046
:06066000F9CFF894FFCF72
:08066600070005000400030079
:00000001FF
